:100000000C9434000C94AD020C9451000C945100EB
:100010000C9451000C9451000C9451000C9451001C
:100020000C9451000C9451000C9451000C94900AC3
:100030000C9451000C9451000C946B010C945100E1
:100040000C9451000C9451000C9451000C945100EC
:100050000C9451000C9451000C9451000C945100DC
:100060000C9451000C94510011241FBECFEFD8E026
:10007000DEBFCDBF11E0A0E0B1E0EAE9F9E102C0E6
:1000800005900D92A632B107D9F721E0A6E2B1E0C2
:1000900001C01D92A833B207E1F70E944B010C94F6
:1000A000CB0C0C94000080912601909127010895BB
:1000B000F999FECF44E050E06AE070E080912601BB
:1000C000909127010C94B30CE0912601F091270147
:1000D0001082118212821382E0912601F091270191
:1000E0008DEF94E693838283089580912601909109
:1000F0002701892B41F484E090E00E947C0B9093CF
:10010000270180932601F999FECF44E050E06AE090
:1001100070E080912601909127010E94A30CE0914C
:100120002601F0912701828193818D3F944611F041
:100130000C9464000895319903C081E080932B01F1
:100140000895CF93DF9380912801882321F01092A6
:100150002B011092280180912B01882391F0C091EE
:100160002901D0912A01209749F0EA81FB818091F1
:100170002B0109950990D881C02DF5CF81E080939E
:100180002801DF91CF910895399A419A20E030E01B
:100190004BE950E060E084E690E00E94270B20E00D
:1001A00030E041EA50E060E080E991E00C94270BF8
:1001B000CF93DF93EC0184E090E00E947C0BDC01A4
:1001C00011961C921E921396DC93CE931297E09197
:1001D0002901F0912A01309729F490932A01809304
:1001E000290108C080819181009711F0FC01FACFAC
:1001F000B183A083DF91CF9108953B9A259A389AD5
:10020000089595E0899FF0011124EA5FFE4FA281D5
:10021000B3812C9181E090E0048002C0880F991F87
:100220000A94E2F7282B2C93089595E0899FF0011A
:100230001124EA5FFE4FA281B3812C9181E090E00E
:10024000048002C0880F991F0A94E2F780958223E8
:100250008C93089595E0899FF0011124EA5FFE4F89
:10026000A281B3812C9181E090E0048002C0880FCC
:10027000991F0A94E2F728272C9308953A9A4298F6
:10028000089588B194E0892788B9089588B182FBE0
:10029000882780F908958FEF8AB987B984B91BB888
:1002A00018B815B80E94C30A0E9475000E94B401D4
:1002B0000E94C4000E943E010E94FD00789420E04C
:1002C00030E040ED59E061E080E090E00E94270BD3
:1002D0000E94D80AFDCF1F920F920FB60F921124E1
:1002E0008F939F93EF93FF93E0912C01F0912D0159
:1002F000ED5CFE4F80819181019691838083FF9117
:10030000EF919F918F910F900FBE0F901F901895B6
:1003100080912C0190912D01FC01EE5CFE4F20811B
:10032000222321F01082845D9E4F089580E090E0AA
:100330000895CF93E0912C01F0912D01DF01A95A8E
:10034000BF4F9C919C3070F4C7E09C9FE00DF11D65
:100350001124838375836483578346833187208781
:100360009F5F9C93CF910895CF93DF9380912C0151
:1003700090912D01892B41F485E391E00E947C0B43
:1003800090932D0180932C01E0912C01F0912D018F
:1003900085E391E0DF019C011D9221503040E1F79F
:1003A00026E733E048EC50E068E273E280E00E9428
:1003B00099012EE034E048EC50E064E371E281E022
:1003C0000E94990129E339E048EC50E060ED70E2C9
:1003D00089E00E9499012BE734E048EC50E060E4AA
:1003E0007FE182E00E94990123EF34E048EC50E085
:1003F00060EA7FE083E00E9499012FE835E048EC55
:1004000050E060E679E084E00E94990120E136E066
:1004100048EC50E06AE67AE085E00E9499012BE51D
:1004200037E044E650E069E773E086E00E94990116
:1004300021E538E040E550E064EF71E087E00E949C
:10044000990129E339E040E550E06EE072E089E08F
:100450000E94990126ED38E04CE350E060E471E041
:1004600088E00E949901C0912C01D0912D0120E0DB
:1004700030E04EE553E060E084E190E00E94270B1D
:100480009983888352985A9882E084BD85B58360A9
:1004900085BD80916E00826080936E0083E087BD91
:1004A00016BC80916900826080936900E89ADF91B0
:1004B000CF910895E92FFF27EF70FF27EB5EFE4FE6
:1004C000208140E1249F90011124FC01EF2FFF27A0
:1004D000E295EF70EB5EFE4F4081242BFC01E07F44
:1004E000FF2754E0F695E7955A95E1F7EB5EFE4F4E
:1004F0004081FC01EF70FF27EB5EFE4F808150E1F1
:10050000859FC0011124842B982F8827282B392BF5
:1005100080E190E0861B9109A90102C0559547959D
:100520008A95E2F7CA01089520912C0130912D019E
:10053000F901E65DFE4F9081891760F4482F50E085
:10054000CA01880F991F840F951F885A9F4F820FE9
:10055000931F089580E090E008951F920F920FB6C8
:100560000F9211242F933F934F935F936F937F9339
:100570008F939F93AF93BF93CF93DF93EF93FF93AB
:10058000C0912C01D0912D01DE01A55DBE4F8C9153
:10059000FE01E65DFE4F811103C081E08C93108265
:1005A000808191E0980F90830E949402009781F0DF
:1005B000CD5CDE4F28813981FC013283218320917B
:1005C000690020FF02C021E001C022E0FC0120837D
:1005D0008091690091E0892780936900E0912C0166
:1005E000F0912D01DF01AD5CBE4F1D921C92019078
:1005F000F081E02D12861186FF91EF91DF91CF916E
:10060000BF91AF919F918F917F916F915F914F912A
:100610003F912F910F900FBE0F901F9018950E9441
:100620009402009719F0FC018081089580E00895FC
:100630008F5F0E949402009749F0FC0181819281B2
:10064000F4E0880F991FFA95E1F7089580E090E0B3
:1006500008950F931F93CF93DF9380E00E941803B8
:10066000EC0110E007E0E0912C01F0912D01DF0199
:10067000A95ABF4F8C911817E0F4019FE00DF11DAE
:1006800011243396818192819E01281B390B37FFFB
:1006900003C0319521953109838194818217930795
:1006A00030F00580F681E02D0995811102C01F5FB1
:1006B000DACFDF91CF911F910F910895E0912C0136
:1006C000F0912D01E55DFE4F8081882371F08091CE
:1006D00069008E7F809369000E942903E0912C01BC
:1006E000F0912D01E55DFE4F108208950F931F9349
:1006F000CF93DF9300D000D01F92CDB7DEB781E05B
:100700000E9418039C012459314137FF03C03195E1
:1007100021953109293C3105E8F08A5C984097FF22
:1007200003C0919581959109893C910508F06BC0B2
:1007300020912C0130912D01F901E45DFE4FD9018A
:10074000A15DBE4F8D919D91AC9180839183A283D9
:10075000369656C019821A821B821C8220E001E064
:1007600010E0822F880F8D5F2D830E9418038A5915
:1007700096402D8197FF03C0919581959109893C01
:100780009105B0F4822F869586958695E1E0F0E09C
:10079000EC0FFD1FE80FF11D822F8770A80102C02A
:1007A000440F551F8A95E2F7CA019081982B9083D8
:1007B0002F5F2032B1F699818A81892B8F778F370D
:1007C00011F54B818C81842B8F778F37E1F4209149
:1007D0002C0130912D01F901E45DFE4F4083D901D8
:1007E000A35DBE4F9C9311961C92A901415D5E4F83
:1007F00080819181A281FA0180839183A2833396C3
:1008000081E0808301C080E00F900F900F900F90E7
:100810000F90DF91CF911F910F9108950F931F9328
:10082000CF93DF9300D000D01F92CDB7DEB781E029
:100830000E9418038A59904197FF03C091958195B2
:100840009109893C910508F04BC019821A821B82DC
:100850001C8220E001E010E0822F880F8D5F2D8345
:100860000E9418038A5396402D8197FF03C09195EB
:1008700081959109893C9105B0F4822F86958695E2
:100880008695E1E0F0E0EC0FFD1FE80FF11D822FEF
:100890008770A80102C0440F551F8A95E2F7CA016C
:1008A0009081982B90832F5F2032B1F629818A8125
:1008B000822B8F778F37A1F43B818C81832B8F77AD
:1008C0008F3771F480912C0190912D01FC01E45D32
:1008D000FE4F3083319620833196108281E001C033
:1008E00080E00F900F900F900F900F90DF91CF91BD
:1008F0001F910F910895EF92FF920F931F93CF9343
:10090000DF9381E00E941803805A9F4097FF03C045
:10091000919581959109893C910508F05CC0C0E0F2
:10092000D0E0F12C01E010E08C2F880F8D5F0E9449
:100930001803825C954097FF03C0919581959109BA
:10094000893C910538F4C8010C2E01C0880F0A9427
:10095000EAF7F82A2196C830D10531F783E10E94E1
:100960001803805A9F4097FF03C091958195910984
:10097000893C910580F5C0E0D0E0E12C01E010E079
:100980008C2F880F8B5E0E941803825C954097FF26
:1009900003C0919581959109893C910538F4C8016E
:1009A0000C2E01C0880F0A94EAF7E82A2196C83075
:1009B000D10531F780912C0190912D01FC01E45D6E
:1009C000FE4FE0823196F08231961082349621E01B
:1009D000208381E001C080E0DF91CF911F910F91D2
:1009E000FF90EF900895AF92BF92CF92DF92EF9277
:1009F000FF920F931F93CF93DF931F92CDB7DEB774
:100A000081E00E941803805A9F4097FF03C0919590
:100A100081959109893C910508F074C007E110E0C7
:100A200023E0C12CD12C7601AA24A394B12C822FCF
:100A300029830E941803805D9740298197FF03C096
:100A4000919581959109893C910578F4A501002E35
:100A500002C0440F551F0A94E2F7662757FD6095C0
:100A6000762FC42AD52AE62AF72A2E5F01501109CB
:100A70002333E9F6D701C60188279927A07FBB2732
:100A800014E1B695A795979587951A95D1F7B70173
:100A9000A60144275F7066277727282F252B2F3044
:100AA00089F5B701A6014427507F6F707727ACE026
:100AB0007695679557954795AA95D1F7242F2C29B8
:100AC0002F3F01F520912C0130912D018901045D0A
:100AD0001E4FF8014083A901435D5E4FFA018083F8
:100AE000D901A25DBE4F1C924E5F5F4FF80180811D
:100AF0009181A281FA0180839183A283339681E060
:100B0000808301C080E00F90DF91CF911F910F9102
:100B1000FF90EF90DF90CF90BF90AF9008958F92AD
:100B20009F92AF92BF92CF92DF92EF92FF920F937C
:100B30001F93CF93DF931F92CDB7DEB781E00E9462
:100B400018038855924097FF03C0919581959109AC
:100B50008536910508F055C080902C0190902D01AC
:100B6000F401E65DFE4FA080C12CD12C760132E06D
:100B7000B32E20E001E010E0BA1410F58B2D29838C
:100B80000E941803805B9440298197FF03C09195D0
:100B900081959109893C910578F4A801022E02C043
:100BA000440F551F0A94E2F7662757FD6095762F8C
:100BB000C42AD52AE62AF72A2F5FB394B394DCCF50
:100BC000F401E35DFE4FD701C6012C3011F0243152
:100BD00021F480789F70AA27BB2727E0B695A795B8
:100BE000979587952A95D1F78083F401E45DFE4FB0
:100BF0008C2D8F77808332961082349681E08083AB
:100C000001C080E00F90DF91CF911F910F91FF9075
:100C1000EF90DF90CF90BF90AF909F908F9008950E
:100C20006F927F928F929F92AF92BF92CF92DF92FC
:100C3000FF920F931F93CF93DF931F92CDB7DEB731
:100C400081E00E940F03813009F025C1812C912C95
:100C5000B12CFF24F394CC24C394D12C811003C075
:100C600009E713E002C00CEB11E08F2D0E9418037E
:100C7000801B910B97FF03C0919581959109893C49
:100C8000910508F4F394F3948F2D0E940F038130A3
:100C900039F49601082C01C0220F0A94EAF7B22A0F
:100CA0002FEF821A920A85E088169104B9F665E062
:100CB0008B2D90E00E945A028C01112784FFEBC01B
:100CC0009C012E703327359527952115310561F04C
:100CD0002630310509F0D7C068E0812C912CB12C69
:100CE000CC24C394D12C66C0612C712CC12CD12C86
:100CF000AA24A394B12C611005C0F9E78F2EF3E06C
:100D00009F2E04C0ECEB8E2E992493948F2D0E947D
:100D100018038819990997FF03C091958195910946
:100D2000893C910508F4F394F3948F2D0E940F03EE
:100D3000813049F4C501062C02C0880F991F0A941E
:100D4000E2F7C82AD92AEFEF6E1A7E0AF0E16F1691
:100D5000710489F660E1C6010E945A0220912C01BB
:100D600030912D01F901E45DFE4F9083319680832F
:100D7000319601701127008383C00CEB11E08F2D99
:100D800069830E941803801B910B698197FF03C040
:100D9000919581959109893C910508F4F394F39418
:100DA0008F2D69830E940F036981813041F0B394D4
:100DB000B61690F4B110E1CF09E713E0E0CFB1101F
:100DC00001C060E1C6010B2C02C0880F991F0A9474
:100DD000E2F7882A992AEBCFC4010E945A028F3089
:100DE000904809F050C0812C912C00E010E0AA241A
:100DF000A394B12C811005C059E7C52E53E0D52E20
:100E000004C04CEBC42EDD24D3948F2D0E94180314
:100E10008C199D0997FF03C0919581959109893C93
:100E2000910508F4F394F3948F2D0E940F03813001
:100E300049F4C501082C02C0880F991F0A94E2F7F3
:100E4000082B192B8FEF881A980AE0E18E1691046F
:100E500089F660E1C8010E945A0220912C0130916C
:100E60002D01F901E45DFE4F80833196AC014427EA
:100E70005F7750833196892F881F8827881F80834A
:100E8000349681E08083E0912C01F0912D01EE5C9D
:100E9000FE4F808101C080E00F90DF91CF911F91C4
:100EA0000F91FF90DF90CF90BF90AF909F908F9069
:100EB0007F906F9008956F927F929F92AF92BF92B2
:100EC000CF92DF92EF92FF920F931F93CF93DF9316
:100ED0001F92CDB7DEB780E00E940F03823009F089
:100EE000D0C00E940F03082FAA24AA94BA2C10E0A5
:100EF000C12C62E0D62EEE24E394F12C8D2D0E94BD
:100F000018038957934097FF03C0919581959109E4
:100F1000893C910508F4D394992493949D0C892DD0
:100F20000E940F03823061F42FEFA21641F0970167
:100F30000A2C01C0220F0A94EAF7C22A01C011E06C
:100F40008FEFA81AB80AE5E0AE16B10411F0D92C5B
:100F5000D5CF65E08C2D90E00E945A02F82EF82F34
:100F6000F170CF2E80FF03C082E08D0D01C0892D6E
:100F70000E9418039C01EE24E3942C318DE0380785
:100F800018F4E12C66E02FC0CC2019F042E0942E3A
:100F90009D0CA901445E5D4057FF03C051954195EA
:100FA0005109493C510510F493949394A9014D556E
:100FB000514157FF03C0519541955109493C510595
:100FC00030F4CC2011F081E001C082E0980E265D63
:100FD000344137FF03C0319521953109293C310552
:100FE00008F493946CE0612C712CA12CB12CCC24CE
:100FF000C394D12CEE2011F0662089F0892D6983ED
:101000000E94180389579340698197FF03C0919507
:1010100081959109893C910508F493949394892DC5
:1010200069830E940F036981823049F4C601062C4E
:1010300002C0880F991F0A94E2F7A82AB92AEFEF95
:101040006E1A7E0A6616B0F2C5010E945A02EE20A0
:1010500029F026E0969587952A95E1F78F73013060
:1010600009F4806820912C0130912D01F901E45D93
:10107000FE4F80833196F08231961083349681E062
:10108000808381E00F90DF91CF911F910F91FF90AE
:10109000EF90DF90CF90BF90AF909F907F906F9038
:1010A0000895DF92EF92FF920F931F93CF93DF93F8
:1010B00081E00E9418039C01245C394037FF03C083
:1010C000319521953109293C310558F08C5A9D40C4
:1010D00097FF03C0919581959109893C910508F08E
:1010E0005CC000E010E0C0E0D0E0E3E0DE2EEE24E3
:1010F000E394F12C8D2D0E941803845F914097FF9B
:1011000003C09195819591098536910508F4D39492
:10111000D3948D2D0E940F03813049F49701002E46
:1011200002C0220F331F0A94E2F7C22BD32B0F5FAA
:101130001F4F00311105F1F64C2F9D2FCE3F19F4B2
:1011400051E0DF3F09F050E020912C0130912D015A
:10115000F901E15DFE4F80818E3F39F481E0D901D4
:10116000A05DBE4F6C916F3F09F080E0552339F0D0
:101170004083F901E05DFE4F908381E00FC088233A
:1011800069F0F901E45DFE4F40833196908331961A
:101190001082349691E0908301C080E0DF91CF917E
:1011A0001F910F91FF90EF90DF900895EF92FF92C3
:1011B0000F931F93CF93DF9300E010E0C0E0D0E0E7
:1011C000EE24E394F12C802F880F8F5F0E94180388
:1011D0008059964097FF03C0919581959109893C6C
:1011E000910548F4C701002E02C0880F991F0A9488
:1011F000E2F7C82BD92B0F5F1F4F0F30110519F7DE
:1012000020912C0130912D01CE01807E9F71A5E0AF
:1012100096958795AA95E1F7A901445D5E4FFA017D
:10122000808331969C2F9F719083319610823196E6
:101230009081982B9F3F71F4D6FF07C080819181E8
:10124000A281EA0188839983AA83D901AE5CBE4F4B
:1012500081E08C93EA0188819981AA8180839183BE
:10126000A28381E0DF91CF911F910F91FF90EF90CA
:101270000895DF92EF92FF920F931F93CF93DF9326
:1012800080E00E941803805D904297FF03C0919513
:1012900081959109893C910510F482E001C080E0BC
:1012A000DD24D394D80E00E010E0C0E0D0E0EE24BE
:1012B000E394F12C8D2D0E9418038652964097FFDF
:1012C00003C0919581959109893C910548F4970156
:1012D000002E02C0220F331F0A94E2F7C22BD32B39
:1012E0000F5F1F4FD394D3940031110519F78091EC
:1012F0002C0190912D01FC01E35DFE4FC0833197DD
:10130000D08332961082349621E0208381E0DF91F1
:10131000CF911F910F91FF90EF90DF900895E09192
:101320002E01F0912F018281811112820895E091A6
:101330002E01F0912F0183818F5F83830284F385D7
:10134000E02D128611860895E0912E01F0912F0173
:101350008281813019F480E00C942A0180E00C94A1
:101360001501E0912E01F0912F018481882339F03D
:101370000E945800E0912E01F0912F0114820895EF
:101380000E944601882331F081E00E94010182E041
:101390000C94150181E00E94150182E00C9401017A
:1013A000CF93DF938CE090E00E947C0BEC01909354
:1013B0002F0180932E018CE0FE0111928A95E9F7AE
:1013C0000E94530099838883E0912E01F0912F01B0
:1013D00012820E94C00987E999E00E94D80020E0AB
:1013E00030E040E55AE060E084E690E00E94270BA0
:1013F00020E030E041EB59E060E080EA9FE00E94AD
:10140000270BC0912E01D0912F0120E030E04FE852
:1014100059E060E080E197E20E94270B9F838E8372
:10142000C0912E01D0912F0120E030E044EA59E034
:1014300060E084EF91E00E94270B99878887C09134
:101440002E01D0912F0120E030E045E35AE060E02A
:101450008CED95E00E94270B9B878A87DF91CF91C7
:1014600008950E9441010C94C009E0912E01F09171
:101470002F018381882399F0813051F0823051F41B
:1014800081E082830680F781E02D1286118602C0FA
:101490000E94310AE0912E01F0912F0113820895EC
:1014A0000E948801E0912E01F0912F0125812A30C0
:1014B00011F02F5F2583009791F1DC0111962C919B
:1014C000119730E0322F22278C91282B828188239C
:1014D00049F0813021F5A081B1812D933C93128296
:1014E00084830895A081B1818D919C91281739073B
:1014F000B1F485818A3099F40E94310AE0912E017D
:10150000F0912F01158280E00E940101E0912E01EF
:10151000F0912F010084F185E02D12861186089547
:101520001F920F920FB60F9211242F933F934F9358
:101530008F939F93EF93FF93E0913201F0913301EA
:1015400041E03097A1F0838581110DC0818592859E
:10155000019692878187228133818217930718F041
:101560001286118643870190F081E02DEACFFF912A
:10157000EF919F918F914F913F912F910F900FBEBF
:101580000F901F90189587E08093890080ED8093DD
:101590008800E1E8F0E080818A6080831092850015
:1015A00010928400EFE6F0E08081826080830895ED
:1015B000EF92FF920F931F93CF93DF93C09132016D
:1015C000D09133018E012097D9F18B85882399F131
:1015D000ED81FE81309749F0D0933101C093300105
:1015E000099510923101109230018C81813011F5F2
:1015F000EF81F885309709F009952FB7F89480911D
:101600003201909133018C179D0739F488819981BB
:10161000909333018093320105C088819981F8014C
:10162000918380832FBFE880F980CE010E94140C43
:10163000E80103C01B86E880F9808E01E701C3CF73
:10164000DF91CF911F910F91FF90EF900895CF926E
:10165000DF92EF92FF920F931F93CF93DF931F922E
:10166000CDB7DEB76C017A0189018CE090E0698327
:101670000E947C0BFC0111821082D382C28269819C
:101680006483F682E58210870783128611861386AB
:101690002FB7F894A0913001B0913101109761F00B
:1016A00017968D919C911897009731F090878783BA
:1016B00018961C921E921797A0913201B091330197
:1016C000109729F4F0933301E093320109C08D9112
:1016D0009C911197009711F0DC01F9CFED93FC93E9
:1016E0002FBFCF010F90DF91CF911F910F91FF90EE
:1016F000EF90DF90CF900895CF93DF9382309105E4
:1017000010F482E090E0E0913601F091370120E0A2
:1017100030E0A0E0B0E0309739F1408151814817C6
:101720005907B8F04817590771F4828193811097CF
:1017300029F013969C938E9312972CC090933701A7
:101740008093360127C02115310531F04217530728
:1017500018F0A901DB0101C0EF019A01BD01DF0111
:101760000280F381E02DD7CF21153105F9F0281B38
:10177000390B2430310580F48A819B816115710514
:1017800021F0FB019383828304C0909337018093FF
:101790003601FE01329644C0FE01E20FF31F819331
:1017A000919322503109398328833AC02091340122
:1017B00030913501232B41F4209102013091030136
:1017C00030933501209334012091000130910101C3
:1017D0002115310541F42DB73EB7409104015091D8
:1017E0000501241B350BE0913401F0913501E2171E
:1017F000F307A0F42E1B3F0B2817390778F0AC0134
:101800004E5F5F4F2417350748F04E0F5F1F509310
:101810003501409334018193919302C0E0E0F0E000
:10182000CF01DF91CF910895CF93DF93009709F413
:1018300087C0FC01329713821282C0913601D09189
:101840003701209781F420813181280F391F809141
:101850003401909135018217930779F5F0933501A2
:10186000E09334016DC0DE0120E030E0AE17BF0729
:1018700050F412964D915C9113979D0141155105BD
:1018800009F1DA01F3CFB383A28340815181840F40
:10189000951F8A179B0771F48D919C911197840F66
:1018A000951F02969183808312968D919C91139738
:1018B000938382832115310529F4F0933701E09356
:1018C00036013EC0D9011396FC93EE9312974D91C9
:1018D0005D91A40FB51FEA17FB0779F48081918110
:1018E000840F951F0296D90111969C938E93828145
:1018F000938113969C938E931297E0E0F0E08A8197
:101900009B81009719F0FE01EC01F9CFCE01029600
:1019100028813981820F931F209134013091350144
:101920002817390769F4309729F41092370110927B
:10193000360102C013821282D0933501C093340164
:10194000DF91CF910895DC01CB01FC01F999FECF25
:1019500006C0F2BDE1BDF89A319600B40D92415037
:101960005040B8F70895DC01CB0103C02D910E94CF
:10197000BE0C41505040D0F70895262FF999FECF64
:101980001FBA92BD81BD20BD0FB6F894FA9AF99A9C
:0A1990000FBE01960895F894FFCFF2
:10199A000000380120002700280003240025000544
:1019AA0027002800000008040C020A060E01090597
:0619BA000D030B070F00F6
:00000001FF