:100000000C94F8000C9415010C9415010C94150136
:100010000C9415010C9415010C9415010C94150108
:100020000C9415010C9415010C9415010C945F0CA3
:100030000C9415010C9415010C9415010C941501E8
:100040000C9415010C9415010C9415010C941501D8
:100050000C9415010C9415010C9415010C941501C8
:100060000C9415010C9415012A01050105000000EE
:100070000001090812130000032002060104000019
:10008000000001090911110000031F050C0E1D05D8
:100090000C040A00000010100101001E060A3C4B6F
:1000A000060A1A220004050C0C010000190204289B
:1000B00033020412180105050C0D01000017040796
:1000C00003060000000000090911160000030F06D6
:1000D0000A060A000000000000010B110001030ED7
:1000E00002047E9C02042935000003131401000061
:1000F0000D0F190307050A0F180000000A0A010076
:10010000000C0104637C010441520206060C0C0140
:10011000000009050C050900000000050D0D15156E
:10012000000003080307171E0307090D0005050F4C
:100130000F010000070B100B100000000001070763
:100140000D0D000001060104637C0104415201040D
:10015000040A0A0100003103090D170309040928E4
:100160003838485801000005030A0E18030A04092C
:1001700000101C283001010004071317380713076B
:10018000130C18000C1801010033040A0B16040AA2
:10019000040A001020303001010003050C0F1E0579
:1001A0000C040B00101525250101001C050C112263
:1001B000050C050C000D1A222A01010002050C1184
:1001C00022050C050C000000000001010002050CD6
:1001D0001122050C050C0010102020010100010F58
:1001E00015070B070B070B0F14000F14000100007D
:1001F00011241FBECFEFD8E0DEBFCDBF11E0A0E0DD
:10020000B1E0EEE5F1E202C005900D92AC31B1072C
:10021000D9F721E0ACE1B1E001C01D92AA36B207E6
:10022000E1F70E943D0C0C94AD100C9400008091FD
:100230001C0190911D010895F999FECF4EE050E008
:100240006AE070E080911C0190911D010C94951062
:10025000E0911C01F0911D018EE0DF011D928A9555
:10026000E9F7E0911C01F0911D018DEF94E695876F
:100270008487089580911C0190911D01892B41F480
:100280008EE090E00E945B0F90931D0180931C0113
:10029000F999FECF4EE050E06AE070E080911C01D9
:1002A00090911D010E948510E0911C01F0911D01AB
:1002B000848595858D3F944611F00C94280108950E
:1002C000319903C081E0809321010895CF93DF939A
:1002D00080911E01882321F01092210110921E01AD
:1002E00080912101882391F0C0911F01D0912001BC
:1002F000209749F0EA81FB818091210109950990BD
:10030000D881C02DF5CF81E080931E01DF91CF9180
:100310000895399A419A20E030E040E651E060E0EB
:1003200084E690E00E94FF0E20E030E046E651E0D7
:1003300060E080E991E00C94FF0ECF93DF93EC0135
:1003400084E090E00E945B0FFC0111821082D38355
:10035000C283E0911F01F0912001309729F490931E
:10036000200180931F0109C02081318121153105B1
:1003700011F0F901F9CF91838083DF91CF91089536
:1003800086B18695817091E0892708953B9A259AD8
:10039000389A089525E0829FC0011124FC01E45F92
:1003A000FE4FA281B3812C9181E090E0048002C0D5
:1003B000880F991F0A94E2F7822B8C93089525E009
:1003C000829FC0011124FC01E45FFE4FA281B38132
:1003D0002C9181E090E0048002C0880F991F0A945C
:1003E000E2F7809582238C93089561110C94CA01E1
:1003F0000C94DF0125E0829FC0011124FC01E45F21
:10040000FE4FA281B3812C9181E090E0048002C074
:10041000880F991F0A94E2F782278C9308955398C6
:100420005B9A549A5C9855985D9A56985E9A08958E
:10043000882311F05C9A08955C98089589B183FB34
:10044000882780F991E0892708954D9905C089B1E1
:1004500086FB882780F9089580E008953A9A4298AB
:10046000089598B184E0892788B9089588B182FBFE
:10047000882780F9089590915D0140914C01911178
:1004800005C04F3019F480935E0139C15091550178
:100490009517F8F0209156019217D8F4E0915B017E
:1004A000282F30E06091410170914201EE2341F02C
:1004B000E92FE51B02C0220F331FEA95E2F702C0C5
:1004C000660F771F262B372B309342012093410173
:1004D00034C050915701951780F12091580192171F
:1004E00060F560915B01282F30E06623D1F0692F21
:1004F00070E0493251F4903240F06052710902C00C
:10050000220F331F6A95E2F762C0651B710902C0B2
:10051000220F331F6A95E2F760913F01709140010D
:1005200006C060913F0170914001660F771F262B36
:10053000372B3093400120933F01423011F04C3172
:10054000B1F5983060F420913B0130913C01220FCD
:10055000331F282B30933C0120933B010DC0983171
:1005600058F42091390130913A01220F331F282B82
:1005700030933A01209339014C31C9F423EF290F0C
:100580002D3008F0BCC0282F30E083EF890F02C067
:10059000220F331F8A95E2F740913D0150913E01B1
:1005A000242B352B30933E0120933D01A8C04330CE
:1005B000C9F42FEE290F243008F0A1C0282F30E015
:1005C0008FEE890F02C0220F331F8A95E2F7409108
:1005D000370150913801242B352B3093380120936B
:1005E00037018DC0453009F045C02CEE290F24306D
:1005F000A0F4282F30E048EF490F02C0220F331F2C
:100600004A95E2F740913F0150914001242B352B50
:100610003093400120933F0114C028EE290F24306D
:1006200068F4282F4CEE490F01C0220F4A95EAF7D3
:1006300030913001232B2093300103C0903308F018
:100640005EC0E92FE695E695E695492F4770F0E004
:10065000EF5CFE4F21E030E001C0220F4A95EAF73F
:10066000882319F08081282B03C0209580812823BE
:10067000208345C0413309F042C0983499F521E008
:1006800020932F012091410130914201432F409549
:1006900050E0B90177274617570729F41092410116
:1006A0002093420102C010922F0140913F015091CE
:1006B0004001252F209530E055272417350759F4A0
:1006C0004091410150914201242B352B309342013E
:1006D0002093410102C010922F011092400110920C
:1006E0003F0102C0983458F020913F013091400101
:1006F000220F331F282B3093400120933F019F5F2F
:1007000090935D0108955A9852980895FC01809144
:100710004B01882309F4DDC090914A01973109F417
:10072000A0C070F49330E9F020F4923009F44CC08A
:10073000D2C0973009F4BBC0913109F492C0CBC04C
:100740009F3109F477C038F4983109F4BAC099316F
:1007500009F4A6C0C0C0993259F1923309F45AC0C5
:10076000BAC0209146013091470180914601909195
:100770004701232F3327809590959927281739070C
:1007800009F0C9C080914601909147019927909343
:100790004701809346018091440190914501209149
:1007A000460130914701982F8827822B932B73C0E5
:1007B000209146013091470180914401909145017B
:1007C000982F8827822B67C080914601909147011E
:1007D0002091460130914701892F99272095309526
:1007E000332782179307B9F180914801909149010D
:1007F0008E3E974809F08FC08BE080934A0180912C
:10080000460190914701892F992790934901809340
:10081000480121C020914601309147018091460155
:1008200090914701232F332799272817390709F07B
:1008300072C011C0809146019091470120914601FC
:1008400030914701892F99272095309533278217BA
:10085000930709F060C08091460190914701992764
:100860001AC0809146019091470120914601309134
:1008700047018695817091E089272170332791E0A7
:1008800029272170821709F446C080914601909172
:1008900047019695879590934701809346011BC029
:1008A0008091460190914701892BA9F434C0809131
:1008B0004801909149018F7D9093490180934801AF
:1008C0000AC080914601909147018D37910519F436
:1008D00022C080E0089580914A0180838091480180
:1008E00090914901928381838091460190914701C3
:1008F0009483838380914301858381E01092470133
:100900001092460110924901109248011092430141
:1009100010924B01089510924A0180E0EFCFCF93DF
:10092000DF9389B190914B01911136C484709091FD
:100930002E01911165C090912D01811104C09F5F1E
:1009400090932D0129C4992349F181E080932E01D0
:1009500080932C0110922B011092400110923F01C4
:100960001092420110924101109230011092380110
:100970001092370110923E0110923D0110923A01FF
:100980001092390110923C0110923B019FEF90931D
:100990005D0180932A0110922901FEC380912701F5
:1009A000909128018F3F2FEF920709F4F5C301962C
:1009B000909328018093270180910A0190910B0167
:1009C0008F3F6FEF960709F4E7C3019690930B01F1
:1009D00080930A01883E924008F4DEC3809125018D
:1009E00090912601892B09F4D7C310922601109209
:1009F00025018FEF9FEF90930B0180930A01CCC3E9
:100A000090912C01992309F4D0C1882389F0809119
:100A10002A018F5F80932A018A3E08F482C3809165
:100A20004A0110922E0110922D0110922A0179C3D1
:100A300080912D0191EE980F9B3030F490912A0116
:100A40009650953008F43BC190914A01943151F48D
:100A500090EB980F9F3630F490912A019A539C3670
:100A600008F433C122EA280F243590F490912A012A
:100A700032ED390F3C3208F425C19751973140F4DB
:100A800080914A01843109F420C16CEB71E043C1CB
:100A900090914A01943141F4243530F490912A0127
:100AA0009550983008F411C194EC980F903130F4BF
:100AB00090912A019C53903108F40AC19FED980F40
:100AC0009A3030F490912A019951983008F403C17A
:100AD00097ED980F983130F490912A0199529831FE
:100AE00008F4FCC098ED980F973130F490912A01EA
:100AF00093519D3008F4F5C096ED980F9D3030F479
:100B000090912A019451983008F4EEC03FEF380FCD
:100B1000343030F490912A0193569A3108F4E7C0AA
:100B200094EF980F943020F098EE980F9730F0F4EF
:100B300090912A0124EF290F243020F028EE290F6C
:100B40002730A0F49093240180518F3018F09051F9
:100B50009F3030F41092230180E48093290103C078
:100B600081E08093230164E371E0D5C04DEF480F2D
:100B7000453058F490912A0129EE290F283008F4C5
:100B8000B9C09950953008F4B5C02AEF280F253028
:100B900058F490912A0154EC590F503108F4ADC02B
:100BA0009A51993008F4A9C096EF980F9D3030F40F
:100BB00090912A019E50903108F4A2C09DED980FAB
:100BC0009B3068F490912A019B50963040F410922B
:100BD000240181E08093230162E171E09CC0343004
:100BE00030F490912A0190539E3008F48CC091EF1C
:100BF000980F9B3030F490912A019350953008F46F
:100C000085C09EEF980F933058F430912A013952E5
:100C10003D3008F043C4109223016FED70E07BC0BB
:100C20002530E8F420912A013FED320F313140F4B4
:100C30002093240181E0809323016EEC70E06BC06F
:100C4000933068F420912A012550243040F410920A
:100C5000240181E08093230168E670E05CC0845049
:100C60008B3090F480912A012AEF280F253020F054
:100C700024EF280F293040F48093240181E08093F1
:100C800023016DEB70E047C0933028F480912A0176
:100C900083558631F0F1443068F480912A01845004
:100CA000843040F41092240181E08093230169E7AD
:100CB00070E031C010922E0160E070E02CC06EED4B
:100CC00071E029C06BEA71E026C06DEC71E023C0D1
:100CD0006AE971E020C069E871E01DC068E771E071
:100CE0001AC067E671E017C066E571E014C065E4FC
:100CF00071E011C063E271E00EC06BE970E00BC0FF
:100D00006AE870E008C061E071E005C060EF70E083
:100D100002C06CEA70E080912E01882331F041E13D
:100D200050E08CE491E00E947C1010925D01809173
:100D30005C0190914C0180FF1DC0973171F1993099
:100D400061F120914E0140912A01241760F450E096
:100D500030E0220F331F241735072CF08695817061
:100D600091E0892718C090912301911116C08695B2
:100D7000817011C0983039F480912A0187518830F0
:100D800048F481E008C09E3141F480912A018C53DF
:100D90008031B8F380E00E943B0281E080932D0116
:100DA00010922A0110922C01BCC190912B01992321
:100DB00009F4AAC1882309F4F4C130915901809142
:100DC0005D01381315C090915A01913089F48091DA
:100DD0005C0180FD0AC080912D019091510189171D
:100DE00080F190915201981760F110925A01C9C197
:100DF00020912A012F5F20932A0190914C0191307C
:100E000009F045C02C3020F540915C0140FDDFC069
:100E10002A3E08F4B6C1482F50E0232F30E021507D
:100E200031094217530709F4EFC0923009F47EC12B
:100E30009C3109F4F1C0993209F423C1943009F4CA
:100E40002CC110922E0110922D0110922A01A4C1E2
:100E50008B30D0F2980F90935901282F30E02B500F
:100E60003109322F22274091410150914201242B18
:100E7000352B309342012093410190915701890F06
:100E80008F5F809358018AE080932A018AC19F3046
:100E900009F058C040915A014111B6CF263218F1DD
:100EA0009BEF980F9230F8F481E080935A0188E12B
:100EB00080934C0187E08093590110925501109264
:100EC0005601109257018093580180913F019091F3
:100ED0004001880F991F20915E01822B9093400161
:100EE00080933F015EC14091500130E050E0440FDB
:100EF000551F241735072CF0883008F412C18AE0FA
:100F000035C08A3008F43DC180E180934C0189E00E
:100F10008093550191E19093560191E09093570190
:100F20008093580180913F01909140019C012227BC
:100F30003370232B09F425C1909341011092420193
:100F400099279AC0973109F05FCF40915A0141111A
:100F50005BCF4091500130E050E0440F551F241703
:100F600035073CF08F3008F4DCC081E180935901F3
:100F700047C0813108F405C181E180934C01109292
:100F800055018BE0809356018093570186E1809351
:100F9000580180913F019091400120914101309191
:100FA0004201220F331F220F331FAC0166E056951A
:100FB00047956A95E1F7242B352B30934201209316
:100FC00041018F73992720912301822B55C04091B5
:100FD0005001622F70E050E0440F551F64177507F1
:100FE0000CF416CF682F70E0432F50E042505109A7
:100FF000641775070CF40CCF40915A01411108CFCA
:1010000081E080935A01CDC020915A0121110DCF6A
:101010008F5F80935D01B5C0882309F489C0803259
:1010200009F043C291E090935A0192E090934C01F1
:101030008093590180913D0190913E019C01322F96
:1010400022273295330F307E409141015091420169
:10105000242B352B309342012093410140913F01D5
:1010600020E030E0342F330F330FA3E096958795BF
:10107000AA95E1F7822B932B9093400180933F0137
:1010800080C0803209F0DDCE9AE090934C0190E16F
:10109000909357018093580134C0863109F0D1CE26
:1010A0008091410190914201880F991F90934201D4
:1010B0008093410120913F013091400133FF0AC0EC
:1010C00081609093420180934101377F30934001CA
:1010D00020933F018091410190914201809590952C
:1010E000977020913F01309140018217930709F0DA
:1010F000A8CE10924201109241018FE280934C01E0
:1011000086E1809359013DC0811106C080912D0177
:101110008F5F80932D0105C081E080932B01809328
:101120002A0180912E0181112CC036C08111FEC18F
:1011300080912701909128018830974008F0B2C132
:1011400081E080935A0182E080934C011092590112
:10115000809108019091090190934201809341018F
:1011600080910601909107019093400180933F0187
:101170008091430181608093430110922801109275
:1011800027019091590180915D01981305C08091CC
:101190005A01882309F40DC280914B01DF91CF9150
:1011A000089580915C0180FF96C0C0912D019091BF
:1011B0004E019C1708F04DC090914C019930B1F44C
:1011C00090915D01943091F42C2F30E02C3031055A
:1011D0006CF080915901843229F481E00E943B0235
:1011E00081E034C080E00E943B0220C0D1E08695BF
:1011F00081708D270E943B0280914C018930E1F47F
:1012000080915D018430C1F48C2F90E00C97A4F0A4
:1012100081E00E943B028091500120912A0130E040
:1012200090E0880F991F821793071CF410922301F6
:101230004DC0D09323014AC080915C018695817096
:101240000E943B0280915C0186958170809323010E
:101250003DC080914D01C817A8F1809150012091A7
:10126000240140912301821768F430E090E0880F58
:10127000991F8217930734F081E0411180E0809339
:10128000230101C0842F90914C019930C1F49091B9
:101290005D019130A1F4813091F494E29093590171
:1012A00025E02093550124E12093560125E1209368
:1012B00057019093580110924201109241010E94EF
:1012C0003B0204C010922E0110922A0180912A0143
:1012D00080932401DFC090914C01933011F520914F
:1012E0005D01203121F580912D018550883008F075
:1012F00044C080912A0194EC980F903120F4109210
:101300002B0181E15FC099E290934C01209357013A
:1013100090E390935801909359018F50803120F5BC
:10132000B6C09C3119F580915D01883059F18091EA
:101330002D0120914D01821708F06CC020915101C0
:10134000821708F479C020915201281708F474C05C
:1013500020912A0130915301231708F46DC0309178
:101360005401321708F468C080E092C09E30F9F64C
:1013700080912D0182508330C8F010922E0110927E
:101380002A018AC020912A012E522C3280F69BE13C
:1013900090934C0110925501809356018093570110
:1013A00080E1809358018093590174C090915D0150
:1013B00080912A01913049F4825D8632F0F61092D4
:1013C0002B0182E080935D0167C0933139F4885A24
:1013D000883298F610922B0184E1F4CF92E8980FAE
:1013E0009F3138F481E00E943B0281E08093230129
:1013F00051C097ED980F9D3030F480E00E943B0281
:101400001092230147C08355863108F0B6CF8091F2
:1014100023013EC020914E01281708F48FCF209160
:101420002A0130914F01231708F488CF30915001E1
:10143000321708F483CF2BC0993109F09ECF825028
:10144000833008F09ACF80915D01883011F08630AA
:1014500029F490912A019D53913148F08C3009F084
:101460008CCF80912A018355863188F086CF8830D1
:1014700071F489E080935D0180913F01909140017A
:10148000880F991F9093400180933F0103C081E032
:101490000E943B0210922B0181E03BCE253008F4E4
:1014A000C1CBD0CB10924B016CCE8C31A9F491E022
:1014B00090935A0198E290934C0180935901809146
:1014C0003B0190913C0190934201809341018091B6
:1014D000390190913A01D0CD90EF980F923008F0F9
:1014E000B0CC91E090935A0194E190934C01809399
:1014F0005901809141019091420120913D0140E0CC
:1015000050E0522F550F9C01E4E036952795EA955F
:10151000E1F7242B352B3093400120933F018F704E
:10152000992790934201809341012BCE90EF980F21
:101530009230F8F421E020935A0194E190934C0109
:10154000809359018091410190914201AC01B4E036
:1015500056954795BA95E1F75093400140933F0166
:101560008F709927909342018093410120932E011F
:1015700008CE94EE980F923008F063CC91E09093EF
:101580005A0128E220934C0180935901209139019E
:1015900030913A013093400120933F0120913B016B
:1015A00030913C01309342012093410190932E01F0
:1015B000E8CD609106017091070120913F013091C3
:1015C00040016217730769F4409127015091280187
:1015D000403B544030F4809122018F5F8093220180
:1015E00002C01092220180914C01813051F440914F
:1015F00022014150423058F41092280110922701E4
:10160000E1C08D3021F44091220140FDF5CF41E051
:1016100040934B018830A1F5A90140955095537036
:10162000E0912501F09126014E175F07B9F4509320
:10163000400140933F0110922601109225018093B2
:101640004A01809141019091420190934901809318
:1016500048015093470140934601B4C020FD09C0A2
:10166000309326012093250110920B0110920A015C
:1016700004C0109226011092250110924B01A2C0C5
:101680008F3029F42F3F314009F06EC0F6CF823001
:1016900001F5911169C0209127013091280128306E
:1016A000374008F05BC02091080130910901309368
:1016B0004201209341017093400160933F0190915A
:1016C00043019160909343011092280110922701E9
:1016D0004BC0853079F53091310190913201E09124
:1016E0003301232F2F7032953F703227292F2F700F
:1016F000232792959F702927022E000C330B4E2F23
:101700004F7050E02417350711F010924B01909163
:1017100034019E27209135019227209136019213A2
:1017200010924B012091430190913001922B9093A4
:1017300043011AC08133A9F4432F409550E0332769
:101740004217530729F45093400140933F0102C0D0
:1017500010922F0190912F01911106C010924B0110
:1017600003C0893009F46FC080934A012091410180
:10177000309142013093490120934801823029F48D
:1017800030930901209308010DC0873059F420914E
:10179000290180913F0190914001822B909340015B
:1017A00080933F0180913F019091400190934701C8
:1017B00080934601809137019091380190934501C3
:1017C0008093440180914B01882351F120913F0186
:1017D00030914001409141015091420162177307DD
:1017E00099F480910801909109018417950761F49B
:1017F00080912701909128018A3C984028F480919B
:101800004301816080934301509309014093080193
:1018100030930701209306011092280110922701AE
:1018200010922E011092400110923F0110922D0152
:1018300010922A0180914A01843109F0ADCC87E8E9
:1018400080932D01A9CC943209F08ECF95E190932D
:101850004A018CCF89E294E09093890080938800BC
:1018600089E0809381001092850010928400EFE659
:10187000F0E080818260808308958FEF8AB987B914
:1018800084B91BB818B815B80E943A010E948901A2
:101890000E942E020E94C6010E940F020E94830332
:1018A0000E942A0C789420E030E04DE25DE061E097
:1018B00080E090E00E94FF0E0E94AF0EFDCF1F92CD
:1018C0000F920FB60F9211242F933F934F935F9374
:1018D0006F937F938F939F93AF93BF93EF93FF93F8
:1018E0000E948F0480915F018F5F80935F018F3032
:1018F00020F00E94900E10925F01FF91EF91BF9136
:10190000AF919F918F917F916F915F914F913F9197
:101910002F910F900FBE0F901F901895E0916001CE
:10192000F09161018281813019F480E00C94DF0133
:10193000823029F480E00E94DF0181E004C08350FE
:10194000823018F480E00C94FA010895E09160016F
:10195000F091610182818230F9F028F48823B9F096
:10196000813039F01FC08530E8F481E00E94DF014A
:1019700016C00E943602682F81E00E94F5010E9485
:10198000360261E0811160E082E00C94F50181E0B3
:101990000E94CA0182E00DC081E00E94CA0182E07B
:1019A0000C94DF0181E00E94CA0182E00E94CA011A
:1019B00080E00C94CA01E0916001F091610181E046
:1019C000828387EA9DE00E949D010E94A60C20E090
:1019D00030E04FE75EE060E088EE93E00C94FF0EAD
:1019E000E0916001F09161018281833019F40E94DD
:1019F00028010BC0843069F4A081B18186E0FD012B
:101A0000169601900D928A95E1F70E941C010C94A4
:101A1000DB0C0895E0916001F091610183E0828325
:101A200020E030E040EF5CE061E080E197E20E947E
:101A3000FF0E0C94A60C0E94C001882319F00E948E
:101A40000A0D02C00E94DB0C20E030E044EB5DE0B8
:101A500060E084E690E00C94FF0ECF93DF9386E085
:101A600090E00E945B0FEC01909361018093600114
:101A700086E0FE0111928A95E9F70E941701998389
:101A80008883E0916001F091610112820E94A60CAE
:101A900080E00E94180220E030E04BE15DE061E070
:101AA0008CE291E00E94FF0EC0916001D091610133
:101AB00020E030E04EE85CE060E084EF91E00E94DE
:101AC000FF0E9D838C83DF91CF91089580E00E946B
:101AD00018020E9431020C94A60CE0916001F09172
:101AE00061018281823021F481E082830C94660D51
:101AF0000895E0916001F09161018281813031F5BA
:101B00000E943602882301F10E941E028823E1F020
:101B1000E0916001F091610182E0828381E00E94A6
:101B2000180220E030E04DE65DE061E080E197E200
:101B30000E94FF0EE0916001F09161018481958126
:101B40000E944F0F0C94A60C0C94660D089580E033
:101B50000E94CA01E0916001F09161018481958148
:101B60000E944F0F0C94790DCF93DF9300D000D0DB
:101B700000D0CDB7DEB7CE0101960E948603882340
:101B800009F4B4C08091600190916101DC01139669
:101B90002C911397222319F0215013962C93FC01BA
:101BA0002281223009F4A2C018F4213081F19CC0B6
:101BB000233019F0243099F097C02381211196C069
:101BC000A081B18126E0FE01319601900D922A9507
:101BD000E1F724E0FC0122832AE0238387C02381EC
:101BE000211184C0A081B18186E0FE013196169654
:101BF00001900D928A95E1F70E941C010E94DB0C76
:101C0000E0916001F09161018AE083836FC00190EF
:101C1000F081E02D4081868148130EC08181928140
:101C2000278130858217930739F4238134816185B8
:101C300072852617370761F10E943602E091600134
:101C4000F091610199810190F081E02D882381F06C
:101C5000868198132BC02A813B8187819085281724
:101C6000390721F581E04C815D81218532851BC0DA
:101C7000808198131BC02A813B8181819281281722
:101C80003907A1F481E04C815D81238134810BC04F
:101C9000598145130BC04A815B818417950731F444
:101CA00081E04C815D814217530709F080E0882371
:101CB000E9F0E0916001F09161018381811116C02A
:101CC0000E94790DE0916001F09161018AE08383C7
:101CD00080E00E94CA01E0916001F091610184817D
:101CE00095810E944F0F02C0FC01138226960FB609
:101CF000F894DEBF0FBECDBFDF91CF910895E09184
:101D00006001F09161018281813049F40E943602C4
:101D1000882329F00E94250281110C94790D0895E1
:101D2000E0916401F091650121E03097B9F083857D
:101D3000811110C0818592850196928781874281A9
:101D400053818417950730F08485882319F0128613
:101D5000118623870190F081E02DE7CF0895EF925F
:101D6000FF920F931F93CF93DF93C0916401D091A3
:101D700065018E012097E1F18C858823A1F18B8587
:101D8000882389F1ED81FE81309749F0D09363017A
:101D9000C0936201099510926301109262018C81D7
:101DA000813001F5EF81F885309709F009952FB75B
:101DB000F894409164015091650188819981C4171C
:101DC000D50729F4909365018093640103C0F8015D
:101DD000918380832FBFE880F980CE010E94F30FAA
:101DE000E80103C01B86E880F9808E01E701C2CFBD
:101DF000DF91CF911F910F91FF90EF900895CF92B7
:101E0000DF92FF920F931F93CF93DF936C01F62E17
:101E10008A01E9018DE090E00E945B0FFC011182D4
:101E20001082D382C282F48216830583D087C7834F
:101E300012861186138681E084872FB7F894A091CB
:101E40006201B0916301109761F017968D919C919A
:101E50001897009731F09087878318961C921E92EE
:101E60001797A0916401B0916501109729F4F09340
:101E70006501E093640109C08D919C9111970097D1
:101E800011F0DC01F9CFED93FC932FBFCF01DF916F
:101E9000CF911F910F91FF90DF90CF900895FC019B
:101EA000892B39F08485882329F01382128281E0FE
:101EB000089580E008950F931F93CF93DF938230AE
:101EC000910510F482E090E0E0916801F0916901E1
:101ED00020E030E0A0E0B0E0309719F1408151817E
:101EE0000281138148175907C8F08417950769F4D0
:101EF000109731F012960C93129713961C9327C0EB
:101F0000009368011093690122C02115310519F071
:101F10004217530718F49A01BD01EF01DF01F801E0
:101F2000DBCF21153105F9F0281B390B24303105A1
:101F300080F48A819B816115710521F0FB019383F7
:101F4000828304C09093690180936801FE013296F8
:101F500044C0FE01E20FF31F819391932250310997
:101F6000398328833AC02091660130916701232B81
:101F700041F42091020130910301309367012093D5
:101F8000660120910001309101012115310541F4D4
:101F90002DB73EB74091040150910501241B350B2C
:101FA000E0916601F0916701E217F307A0F42E1BA0
:101FB0003F0B2817390778F0AC014E5F5F4F2417AD
:101FC000350748F04E0F5F1F50936701409366013D
:101FD0008193919302C0E0E0F0E0CF01DF91CF91D7
:101FE0001F910F910895CF93DF93009709F481C05B
:101FF000FC01329713821282A0916801B0916901AD
:10200000109781F420813181820F931F2091660106
:10201000309167012817390751F5F0936701E09374
:10202000660167C0ED0120E030E0CE17DF0740F425
:102030004A815B819E0141155105F1F0EA01F5CF1E
:10204000D383C28340815181840F951FC817D9075C
:1020500059F488819981840F951F0296918380831A
:102060008A819B81938382832115310529F4F09322
:102070006901E09368013DC0E901FB83EA8349916E
:102080005991C40FD51FEC17FD0761F48081918130
:10209000840F951F0296E901998388838281938139
:1020A0009B838A83E0E0F0E012968D919C911397D8
:1020B000009719F0FD01DC01F7CF8D919C911197EC
:1020C0009D012E5F3F4F820F931F2091660130913B
:1020D00067012817390769F4309729F410926901CC
:1020E0001092680102C013821282B0936701A0931C
:1020F0006601DF91CF910895FB01DC0102C00590DC
:102100000D9241505040D8F70895DC01CB01FC01FD
:10211000F999FECF06C0F2BDE1BDF89A319600B440
:102120000D9241505040B8F70895DC01CB0103C037
:102130002D910E94A01041505040D0F70895262FB5
:10214000F999FECF1FBA92BD81BD20BD0FB6F8949C
:0E215000FA9AF99A0FBE01960895F894FFCFFF
:10215E0000006A012000FFFFFFFFFFFF270028009D
:0C216E00032400250005270028000000C5
:00000001FF
